:1005FA00013000013300013200013400012C0001F6
:0F060A002D00013100012E00012F04022A0001F2
:100539001209FB12000312096F120142E52E60F93C
:100549007F811209D98F227F831209D98F237F8551
:100559001209D98F24753800753900753A0A7B005C
:100569007A00792212045BE52C64017012E5326588
:1005790022600C8522327B007A00790E12031AE57B
:100589002D64017012E5346522600C8522347B00EC
:0C0599007A00791412031AE4F52E809DFC
:10031A009000057401120086900005120037FF3321
:10032A0095E0FEEF640A4E60030203CE90000512C8
:10033A0000CB90000474011200869000041200376A
:10034A00FF3395E0FEEF64064E70799000041200C8
:10035A00CB9000037401120086900003120037FF4D
:10036A003395E0FEEF640A4E705A9000031200CBF8
:10037A009000027401120086900002120037FF33C7
:10038A0095E0FEEF64064E703B9000021200CB909F
:10039A0000017401120086900001120037FF3395A4
:1003AA00E0FEEF640A4E701C9000011200CB74014B
:1003BA0012006412001EFF3395E0FEEF640A4E70CD
:0503CA00031200B9223E
:10045B008B358A368937900002120037C4540FABA4
:10046B0038AA39A93A1200B9AB35AA36A937900088
:10047B0002120037540FFFAB38AA39A93A9000018A
:10048B0012003754104F9000011200CBAB35AA3637
:10049B00A937900001120037C4540FAB38AA39A901
:1004AB003A9000021200CBAB35AA36A93790000167
:1004BB00120037540FAB38AA39A93A900003020047
:0104CB00CB65
:1006E3008B358A368937900001120037540FFF1279
:1006F300001EC454F04FAB38AA39A93A9000021235
:1007030000CBAB35AA36A937900002120037C45488
:10071300F0FF900003120037540F4FAB38AA39A9EA
:070723003A9000010200CB37
:1000030053890F438910758B9A758DF3C28FD2ABC9
:05001300D2AFD28E22E5
:03001B0002024995
:10024900C0E0C0F0C083C082C0D075D000C000C07B
:0D02590001C002C003C004C005C006C007FC
:10026600758B9A758DF3AE2AAF2B7C007D14120028
:10027600EDED4C7003753101E5337011AE2AAF2BED
:10028600FC7D191200EDED4C7003752E01052BE572
:100296002BAE2A7002052A1464A04E7054E533145E
:1002A600601514601B1460281460322404703C75B9
:1002B6002F04630B108034E52F602D752F00802BE3
:1002C600530B0FE52F64016005752F01801D801803
:1002D600E52F64026005752F028010800BE52F6400
:1002E600036005752F038003752F04752A00752B8F
:0902F60001AF2F1207ED12089C64
:1002FF00D007D006D005D004D003D002D001D00053
:0B030F00D0D0D082D083D0F0D0E032FC
:10014200E531640160030202481209088F30E5308C
:1001520024FE606A14700302021214700302023257
:1001620024036003020245E53364047025F533F588
:1001720038753900753A1AFB7A00790A1206E3E4F7
:10018200FD7F8E1209C67B007A00791A120863027B
:100192000245E533640170210533E50A6402600318
:1001A200020245E50B440FD39403748094805003FC
:1001B200020245E4F50B0202450533020245E5332E
:1001C20024FE601714602F14603924037075050A29
:1001D200E50A75F0038485F00A8068530B0F050B5E
:1001E200E50A64027005530B038058E50B75F00AAB
:1001F2008485F00B804D050CE50C75F0068485F0C6
:100202000C8040050DE50D75F00A8485F00D8033F4
:10021200E52C14600C14600E24027027752C0180EA
:1002220022752C02801DE4F52CFB7A00790E800EDB
:10023200E52D24FE6002800B7B007A0079147D0696
:0702420012099FE4F53122CF
:06099F008B358A36893712
:1009A500E4FFED6F6012AB35AA36A9378F827583E8
:0809B50000E41200CB0F80EA00
:0109BD002217
:0D09FB00C2A7C2A6C293C291C2A2C2A1228D
:050A3800D2A6C2A622B7
:050A3D00D291C29122DC
:050A4200D2A1C2A122B7
:10072A00EF3392A5C2A7D2A7EFA2E692A5C2A7D29B
:10073A00A7A2E592A5C2A7D2A7A2E492A5C2A7D270
:10074A00A7A2E392A5C2A7D2A7A2E292A5C2A7D264
:10075A00A7A2E192A5C2A7D2A71392A5C2A7D2A720
:01076A00226C
:10076B00EF339294C293D293EFA2E69294C293D2B8
:10077B0093A2E59294C293D293A2E49294C293D2A1
:10078B0093A2E39294C293D293A2E29294C293D295
:10079B0093A2E19294C293D293139294C293D29365
:0107AB00222B
:1007AC00EF3392A0C2A2D2A2EFA2E692A0C2A2D232
:1007BC00A2A2E592A0C2A2D2A2A2E492A0C2A2D20C
:1007CC00A2A2E392A0C2A2D2A2A2E292A0C2A2D200
:1007DC00A2A2E192A0C2A2D2A21392A0C2A2D2A2C1
:0107EC0022EA
:0D0A0800AE0512072AAF0612072A020A38AF
:0D0A1500AE0512076BAF0612076B020A3D1B
:0D0A2200AE051207ACAF061207AC020A4287
:080A2F007F017EEFDEFEDFFC1B
:010A3700229C
:1008D2007E483D6D4B67774C7F6F5F733679371774
:1008E200FEC8BDEDCBE7F7CCFFEFDFF3B6F9B79764
:1008F200BFDFEFF7FBFDF7C1EEEBD9BBBFE1FFFBBB
:06090200FD9FB6CFBEBC54
:10061900040A01020405060E000000000000061489
:0C062900000000000000010800010900B2
:1007ED00E5086F7DFF6019E4FF120A08740A2508F9
:1007FD00F8E69008D293FFE5089008F293FD801279
:10080D00E4FF120A08740A2508F8E69008D293FF4F
:0A081D007DFF120A080508530803C6
:0108270022AE
:10089C00740E2509F8E69008F893FFE5099008F224
:1008AC0093FD120A15740E2509F8E69008F893FFCB
:1008BC00E5099008F293FD120A220509E50975F085
:0508CC00068485F0091F
:0108D1002204
:10090800E4FF20900920902B0F20902780FB20B631
:100918000A20B61F7F0220B61A80FB20920A209276
:10092800127F0320920D80FB20B50820B5057F04B7
:0309380030B5FDDA
:01093B002299
:1005A500EF139296EFC313FFD295C295139296EF70
:1005B500C313FFD295C295139296EFC313FFD2953D
:1005C500C295139296EFC313FFD295C295139296D7
:1005D500EFC313FFD295C295139296EFC313FFD2C3
:1005E50095C295139296EFC313D295C29513929621
:0505F500D295C2952221
:1004CC00E4A29633FFD295C295A296E43325E0427E
:1004DC0007D295C295A296E43325E025E04207D2D7
:1004EC0095C295A296E43333333354F84207D29530
:1004FC00C295A296E433C454F04207D295C295A299
:10050C0096E433C43354E04207D295C295A296E4E4
:10051C0033C4333354C04207D295C295A296E43308
:0C052C00C433333354804207D295C2958B
:0105380022A0
:1009EA0080828486888A8C8E9081838587898B8D84
:0109FA009D5F
:1006350008221258081409072080081A00580814BF
:040645000907208001
:10064A00E4F5437FC11209D99009FAE4936F603C3B
:10065A001209BE9009FAE493FD7FC01209C69009F7
:10066A00F2E493FF7DA51209C6E4F543C3E543947A
:10067A0008748094805015E5439009EA93FF742228
:0C068A002543F8E6FD1209C6054380E098
:010696002241
:10096F007FC11209D99009FAE4936F60221209BE70
:10097F009009FAE493FD7FC01209C69009F2E4933F
:0F098F00FF7DA51209C67B007A0079221208634A
:01099E002236
:06093C008B3B8A3C893D63
:10094200E4F53EC3E53E940774809480501EE53E74
:100952009009F393FF1209D9AB3BAA3CA93D853E0E
:0C09620082758300EF1200CB053E80D7A9
:01096E002266
:0809BE009009F1E493FFE4FD50
:1009C6008D35C297C295D2971205A5AF351205A5EA
:0309D600C29722A3
:1009D900C296C297C295D2971205A51204CCC297A6
:0109E90022EB
:060863008B358A3689374F
:10086900E4F538C297C295D2977FBE1205A5C3E5B4
:10087900389408748094805017AB35AA36A9378507
:100889003882758300120037FF1205A5053880DE0E
:02089900C29704
:01089B00223A
:060828008B3F8A4089416C
:10082E00E4F542C297C295D2977FBF1205A5C3E5E4
:10083E004294087480948050171204CCAB3FAA40A7
:10084E00A941854282758300EF1200CB054280DEFE
:04085E00C297C296E5
:010862002273
:10069700C295C297D297E4FDEDC394087480948005
:1006A700500FEF139296EFC313FFD295C2950D80AB
:1006B700E7E4FDEDC39408748094805018A296E493
:1006C70033FFC43333335480FCEEC3134CFED2954F
:0B06D700C2950D80DEC297C296AF06F0
:0106E20022F5
:030000000203CF29
:0C03CF00787FE4F6D8FD75814302041627
:10001E00BB010689828A83E0225002E722BBFE02E0
:09002E00E32289828A83E4932213
:10003700BB010CE58229F582E5833AF583E022507E
:1000470006E92582F8E622BBFE06E92582F8E222C8
:0D005700E58229F582E5833AF583E49322E2
:10006400BB010989828A83F8E028F022500327F72C
:1000740022BBFE05F8E328F3228A838982F8E493FD
:02008400282230
:10008600BB010FF8E58229F582E5833AF583E0287E
:10009600F0225009C58229F8E58226F622BBFE0920
:1000A600C58229F8E22582F222F8EA2583F583E95A
:0300B6009328226A
:1000B900BB010689828A83F0225002F722BBFE0126
:0200C900F32220
:1000CB00F8BB010DE58229F582E5833AF583E8F06B
:1000DB00225006E92582C8F622BBFE05E92582C817
:0200EB00F222FF
:1000ED00BC000BBE0029EF8DF084FFADF022E4CCF7
:1000FD00F875F008EF2FFFEE33FEEC33FCEE9DECC0
:10010D00984005FCEE9DFE0FD5F0E9E4CEFD22ED05
:10011D00F8F5F0EE8420D21CFEADF075F008EF2F4F
:10012D00FFED33FD4007985006D5F0F222C398FD40
:05013D000FD5F0EA22DD
:1003DB00020539E493A3F8E493A34003F68001F2FA
:1003EB0008DFF48029E493A3F85407240CC8C33323
:1003FB00C4540F4420C8834004F456800146F6DFF2
:10040B00E4800B01020408102040809005FAE47E82
:10041B00019360BCA3FF543F30E509541FFEE493E6
:10042B00A360010ECF54C025E060A840B8E493A3AD
:10043B00FAE493A3F8E493A3C8C582C8CAC583CAD8
:10044B00F0A3C8C582C8CAC583CADFE9DEE780BE90
:0106490000B0
:00000001FF
