:10065500013D00014000013F000141000139000159
:0F0665003A00013E00013B00013C040237000156
:10053900120ADA12000312083E120142E53B60F981
:100549007F81120AC98F237F83120AC98F247F856D
:10055900120AC98F25752E00752F0075300A7B0088
:100569007A00792312045BE53964017012E53F656D
:1005790023600C85233F7B007A00790E12031AE56C
:100589003A64017012E5416523600C8523417B00C3
:0C0599007A00791412031AE4F53B809DEF
:10031A009000057401120086900005120037FF3321
:10032A0095E0FEEF640A4E60030203CE90000512C8
:10033A0000CB90000474011200869000041200376A
:10034A00FF3395E0FEEF64064E70799000041200C8
:10035A00CB9000037401120086900003120037FF4D
:10036A003395E0FEEF640A4E705A9000031200CBF8
:10037A009000027401120086900002120037FF33C7
:10038A0095E0FEEF64064E703B9000021200CB909F
:10039A0000017401120086900001120037FF3395A4
:1003AA00E0FEEF640A4E701C9000011200CB74014B
:1003BA0012006412001EFF3395E0FEEF640A4E70CD
:0503CA00031200B9223E
:10045B008B2B8A2C892D900002120037C4540FABC2
:10046B002EAA2FA9301200B9AB2BAA2CA92D9000C4
:10047B0002120037540FFFAB2EAA2FA930900001A8
:10048B0012003754104F9000011200CBAB2BAA2C4B
:10049B00A92D900001120037C4540FAB2EAA2FA91F
:1004AB00309000021200CBAB2BAA2CA92D9000018F
:1004BB00120037540FAB2EAA2FA930900003020065
:0104CB00CB65
:1006F4008B2B8A2C892D900001120037540FFF1286
:10070400001EC454F04FAB2EAA2FA9309000021241
:1007140000CBAB2BAA2CA92D900002120037C45495
:10072400F0FF900003120037540F4FAB2EAA2FA9ED
:07073400309000010200CB30
:1000030053890F438910758B9A758DF3C28FD2ABC9
:05001300D2AFD28E22E5
:03001B0002024995
:10024900C0E0C0F0C083C082C0D075D000C000C07B
:0D02590001C002C003C004C005C006C007FC
:10026600758B9A758DF3AE37AF387C007D1412000E
:10027600EDED4C7003753E01E5407011AE37AF38B9
:10028600FC7D191200EDED4C7003753B010538E558
:1002960038AE37700205371464A04E7054E540142A
:1002A600601514601B1460281460322404703C75B9
:1002B6003C04630B108034E53C602D753C00802BBC
:1002C600530B0FE53C64016005753C01801D8018E9
:1002D600E53C64026005753C028010800BE53C64D9
:1002E600036005753C038003753C0475370075385B
:0902F60001AF3C1208BD1209A77A
:1002FF00D007D006D005D004D003D002D001D00053
:0B030F00D0D0D082D083D0F0D0E032FC
:10014200E53E64016003020248120A138F3DE53D59
:1001520024FE606A14700302021214700302023257
:1001620024036003020245E54064047025F540F56E
:100172002E752F0075301AFB7A00790A1206F4E404
:10018200FD7F8E120AA17B007A00791A12096E0293
:100192000245E540640170210540E50A64026003FE
:1001A200020245E50B440FD39403748094805003FC
:1001B200020245E4F50B0202450540020245E54014
:1001C20024FE601714602F14603924037075050A29
:1001D200E50A75F0038485F00A8068530B0F050B5E
:1001E200E50A64027005530B038058E50B75F00AAB
:1001F2008485F00B804D050CE50C75F0068485F0C6
:100202000C8040050DE50D75F00A8485F00D8033F4
:10021200E53914600C14600E2402702775390180D0
:1002220022753902801DE4F539FB7A00790E800EC1
:10023200E53A24FE6002800B7B007A0079147D0689
:07024200120A7AE4F53E22E6
:060A7A008B2B8A2C892D54
:100A8000E4FFED6F6012AB2BAA2CA92D8F8275832A
:080A900000E41200CB0F80EA24
:010A9800223B
:0D0ADA00C2A7C2A6C293C291C2A2C2A122AD
:050B1700D2A6C2A622D7
:050B1C00D291C29122FC
:050B2100D2A1C2A122D7
:10073B00EF3392A5C2A7D2A7EFA2E692A5C2A7D28A
:10074B00A7A2E592A5C2A7D2A7A2E492A5C2A7D25F
:10075B00A7A2E392A5C2A7D2A7A2E292A5C2A7D253
:10076B00A7A2E192A5C2A7D2A71392A5C2A7D2A70F
:01077B00225B
:10077C00EF339294C293D293EFA2E69294C293D2A7
:10078C0093A2E59294C293D293A2E49294C293D290
:10079C0093A2E39294C293D293A2E29294C293D284
:1007AC0093A2E19294C293D293139294C293D29354
:0107BC00221A
:1007BD00EF3392A0C2A2D2A2EFA2E692A0C2A2D221
:1007CD00A2A2E592A0C2A2D2A2A2E492A0C2A2D2FB
:1007DD00A2A2E392A0C2A2D2A2A2E292A0C2A2D2EF
:1007ED00A2A2E192A0C2A2D2A21392A0C2A2D2A2B0
:0107FD0022D9
:0D0AE700AE0512073BAF0612073B020B17CE
:0D0AF400AE0512077CAF0612077C020B1C3A
:0D0B0100AE051207BDAF061207BD020B21A5
:080B0E007F017EEFDEFEDFFC3B
:010B160022BC
:1009DD007E483D6D4B67774C7F6F5F733679371768
:1009ED00FEC8BDEDCBE7F7CCFFEFDFF3B6F9B79758
:1009FD00BFDFEFF7FBFDF7C1EEEBD9BBBFE1FFFBAF
:060A0D00FD9FB6CFBEBC48
:10067400040A01020405060E00000000000006142E
:0C06840000000000000001080001090057
:1008BD00E5086F7DFF6019E4FF120AE7740A250849
:1008CD00F8E69009DD93FFE5089009FD93FD801290
:1008DD00E4FF120AE7740A2508F8E69009DD93FF94
:0A08ED007DFF120AE7050853080317
:0108F70022DE
:1009A700740E2509F8E6900A0393FFE5099009FDFF
:1009B70093FD120AF4740E2509F8E6900A0393FFD3
:1009C700E5099009FD93FD120B010509E50975F08D
:0509D700068485F00913
:0109DC0022F8
:100A1300E4FF20900920902B0F20902780FB20B625
:100A23000A20B61F7F0220B61A80FB20920A20926A
:100A3300127F0320920D80FB20B50820B5057F04AB
:030A430030B5FDCE
:010A4600228D
:10060000EF139296EFC313FFD295C295139296EF14
:10061000C313FFD295C295139296EFC313FFD295E1
:10062000C295139296EFC313FFD295C2951392967B
:10063000EFC313FFD295C295139296EFC313FFD267
:1006400095C295139296EFC313D295C295139296C5
:05065000D295C29522C5
:1004CC00E4A29633FFD295C295A296E43325E0427E
:1004DC0007D295C295A296E43325E025E04207D2D7
:1004EC0095C295A296E43333333354F84207D29530
:1004FC00C295A296E433C454F04207D295C295A299
:10050C0096E433C43354E04207D295C295A296E4E4
:10051C0033C4333354C04207D295C295A296E43308
:0C052C00C433333354804207D295C2958B
:0105380022A0
:100AB40080828486888A8C8E9081838587898B8DB9
:050AC4009D4C70F07C68
:1006900001220508231258081409072080081A00AF
:0706A000580814090720802F
:0907FE008522367BFF7A0A79C4DA
:060807008B308A318932BA
:10080D00E4FFEFC395365026AB33AA34A9358F825A
:10081D00758300120037FEAB30AA31A9328F827575
:10082D0083001200376E60037F00220F80D47F019A
:01083D002298
:1005A500E4F542900ABB93FFE4FD120AA1120A99F1
:1005B5007B007A007943AD22120933753300753417
:1005C500007535431207FEEF702612087EE4F542EA
:1005D500C3E5429407748094805015E542900AB4AF
:1005E50093FF74232542F8E6FD120AA1054280E037
:0B05F500900ABBE493FFAD2A020AA1AC
:10083E00900ABBE493FFE4FD120AA1120A997B0011
:10084E007A00792BAD221209337533007534007599
:10085E00352B1207FEEF700C12087E7B007A0079A2
:0F086E002302096E900ABBE493FFAD2A120AA180
:01087D002258
:060A47008B488A49894A30
:100A4D00E4F54BC3E54B940774809480501EE54B41
:100A5D00900ABD93FF120AC9AB48AA49A94A854B12
:0C0A6D0082758300EF1200CB054B80D790
:010A7900225A
:080A9900900ABCE493FF7DA567
:100AA1008D30C297C295D297120600AF3012060060
:030AB100C29722C7
:100AC900C296C297C295D2971206001204CCC29759
:010AD90022FA
:06096E008B308A31893252
:10097400E4F533C297C295D2977FBE120600C3E551
:10098400339408748094805017AB30AA31A932850F
:100994003382758300120037FF120600053380DEB0
:0209A400C297F8
:0109A600222E
:0608F8008B4C8A4D894E75
:1008FE00E4F54FC297C295D2977FBF120600C3E5AB
:10090E004F94087480948050171204CCAB4CAA4DAF
:10091E00A94E854F82758300EF1200CB054F80DE06
:04092E00C297C29614
:0109320022A2
:08087E007BFF7A0A79C4AD2268
:080886008B308A3189328D3379
:10088E00E4F534C297C295D2977FFE120600E53486
:10089E00C395335017AB30AA31A932853482758394
:0E08AE0000120037FF120600053480E2C297E8
:0108BC002219
:080933008B308A3189328D33CB
:10093B00E4F534C296C297C295D2977FFF12060098
:10094B00E534C3953350171204CCAB30AA31A9321E
:10095B00853482758300EF1200CB053480E2C29799
:02096B00C29632
:01096D002267
:1006A800C295C297D297E4FDEDC3940874809480F4
:1006B800500FEF139296EFC313FFD295C2950D809A
:1006C800E7E4FDEDC39408748094805018A296E482
:1006D80033FFC43333335480FCEEC3134CFED2953E
:0B06E800C2950D80DEC297C296AF06DF
:0106F30022E4
:030000000203CF29
:0C03CF00787FE4F6D8FD75814F0204161B
:10001E00BB010689828A83E0225002E722BBFE02E0
:09002E00E32289828A83E4932213
:10003700BB010CE58229F582E5833AF583E022507E
:1000470006E92582F8E622BBFE06E92582F8E222C8
:0D005700E58229F582E5833AF583E49322E2
:10006400BB010989828A83F8E028F022500327F72C
:1000740022BBFE05F8E328F3228A838982F8E493FD
:02008400282230
:10008600BB010FF8E58229F582E5833AF583E0287E
:10009600F0225009C58229F8E58226F622BBFE0920
:1000A600C58229F8E22582F222F8EA2583F583E95A
:0300B6009328226A
:1000B900BB010689828A83F0225002F722BBFE0126
:0200C900F32220
:1000CB00F8BB010DE58229F582E5833AF583E8F06B
:1000DB00225006E92582C8F622BBFE05E92582C817
:0200EB00F222FF
:1000ED00BC000BBE0029EF8DF084FFADF022E4CCF7
:1000FD00F875F008EF2FFFEE33FEEC33FCEE9DECC0
:10010D00984005FCEE9DFE0FD5F0E9E4CEFD22ED05
:10011D00F8F5F0EE8420D21CFEADF075F008EF2F4F
:10012D00FFED33FD4007985006D5F0F222C398FD40
:05013D000FD5F0EA22DD
:1003DB00020539E493A3F8E493A34003F68001F2FA
:1003EB0008DFF48029E493A3F85407240CC8C33323
:1003FB00C4540F4420C8834004F456800146F6DFF2
:10040B00E4800B0102040810204080900655E47E26
:10041B00019360BCA3FF543F30E509541FFEE493E6
:10042B00A360010ECF54C025E060A840B8E493A3AD
:10043B00FAE493A3F8E493A3C8C582C8CAC583CAD8
:10044B00F0A3C8C582C8CAC583CADFE9DEE780BE90
:0106A7000052
:00000001FF
