:10066E000135000137000136000133000134040268
:03067E0031000147
:10027500E5A0640724FF9203E5A0640624FF920429
:10028500E5A0640524FF9205120838120859E5A077
:10029500640724FF9203E5A0640624FF9204E5A009
:1002A500640524FF9205120838120859E5A0640771
:1002B50024FF9203E5A0640624FF9204E5A06405EB
:1002C50024FF920512083812085912000312078FED
:1002D5001201B9E53360F97F831208168F2A7F85ED
:1002E5001208168F2B753C00753D00753E0A7B0084
:0C02F5007A007929120407E4F53380D464
:100407008B398A3A893B900002120037C4540FABEC
:100417003CAA3DA93E120064AB39AA3AA93B900019
:1004270002120037540FFFAB3CAA3DA93E900001D2
:1004370012003754104F900001120076AB39AA3AD8
:10044700A93B900001120037C4540FAB3CAA3DA949
:100457003E900002120076AB39AA3AA93B90000100
:10046700120037540FAB3CAA3DA93E90000302008F
:01047700760E
:100627008B398A3A893B900001120037540FFF1229
:10063700001EC454F04FAB3CAA3DA93E90000212E5
:100647000076AB39AA3AA93B900002120037C4548E
:10065700F0FF900003120037540F4FAB3CAA3DA99F
:070667003E90000102007645
:1000030053890F438910758B18758DFCC28FD2AB42
:05001300D2AFD28E22E5
:03001B000200EDF3
:1000ED00C0E0C0F0C083C082C0D075D000C000C0D9
:0D00FD0001C002C003C004C005C006C0075A
:10010A00758B18758DFCE53254077003753601E559
:10011A00377011AE31AF32FC7D14120098ED4C707D
:10012A00037533010532E532AE31700205311464CC
:10013A00F47003EE64017054E53714601514601B03
:10014A001460281460322404703C753404630B1064
:10015A008034E534602D753400802B530B0FE53461
:10016A0064016005753401801D8018E534640260FD
:10017A00057534028010800BE5346403600575341C
:10018A00038003753404753100753201AF341205EA
:04019A003A12038D85
:10019E00D007D006D005D004D003D002D001D000B5
:0B01AE00D0D0D082D083D0F0D0E0325F
:1001B900E536640160030202741207FC8F35E535E8
:1001C90024FE6054046003020271E537640470245C
:1001D900F537F53C753D00753E21FB7A00790A1229
:1001E9000627E4FD7F8E1207E97B007A0079211248
:1001F90006ED8074E5376401701A0537E50A640273
:100209007066E50B440FD39403748094804059E4DD
:10021900F50B805405378050E53724FE60171460CC
:100229002F14603924037040050AE50A75F0038428
:1002390085F00A8033530B0F050BE50A640270053C
:10024900530B038023E50B75F00A8485F00B8018A6
:10025900050CE50C75F0068485F00C800B050DE5A1
:0C0269000D75F00A8485F00DE4F53622D6
:0D083800A20392A7A20492A6A20592A522F7
:05085900C2A7C2A622A7
:05085E00D2A6C2A62293
:1007BF007E07EE3395E0C3648094804014A806EF63
:1007CF00088002C313D8FC1392A5C2A7D2A71E801C
:0107DF00E138
:0107E00022F6
:0B0845001207BFAF051207BF02085EDC
:080850007F097EEFDEFEDFFCF4
:01085800227D
:100726007E483D6D4B67774C7F6F5F733679371721
:10073600FEC8BDEDCBE7F7CCFFEFDFF3B6F9B79711
:10074600BFDFEFF7FBFDF7C1EEEBD9BBBFE1FFFB68
:06075600FD9FB6CFBEBC02
:10068100040A01020405060E000000000000061421
:0C0691000000000000000108000109004A
:02053A008F38F8
:10053C00E5A0640724FF9203E5A0640624FF92045F
:10054C00E5A0640524FF9205120838E508653860BB
:10055C001B7DFFE4FF120845740A2508F8E6900796
:10056C002693FFE50890074693FD800D740A250835
:10057C00F8E690072693FF7DFF12084505085308FF
:01058C00036B
:01058D00224B
:10038D00E5A0640724FF9203E5A0640624FF920410
:10039D00E5A0640524FF92051208387DFFE4FF12E5
:1003AD000845740E2509F8E690072693FFE5099098
:1003BD00074693FD120845E5A0640724FF9203E567
:1003CD00A0640624FF9204E5A0640524FF920512A3
:1003DD0008387DFFE4FF12084574142509F8E690EE
:1003ED00072693FFE50990074693FD120845050979
:0903FD00E50975F0068485F0099C
:0104060022D3
:1007FC00E4FF2090092090110F20900D80FB20B673
:09080C000820B6057F0230B6FD9C
:0108150022C0
:1004E500EF139296EFC313FFD295C295139296EF31
:1004F500C313FFD295C295139296EFC313FFD295FE
:10050500C295139296EFC313FFD295C29513929697
:10051500EFC313FFD295C295139296EFC313FFD283
:1005250095C295139296EFC313D295C295139296E1
:05053500D295C29522E1
:10047800E4A29633FFD295C295A296E43325E042D2
:1004880007D295C295A296E43325E025E04207D22B
:1004980095C295A296E43333333354F84207D29584
:1004A800C295A296E433C454F04207D295C295A2ED
:1004B80096E433C43354E04207D295C295A296E439
:1004C80033C4333354C04207D295C295A296E4335D
:0C04D800C433333354804207D295C295E0
:0104E40022F5
:1008270080828486888A8C8E9081838587898B8D48
:010837009D23
:10069D000829125808140907208008210058081449
:0406AD000907208099
:10058E00E4F51E7FC1120816900837E4936F603CA5
:10059E001207E1900837E493FD7FC01207E9900837
:1005AE002FE493FF7DA51207E9E4F51EC3E51E9423
:1005BE0008748094805015E51E90082793FF7429C7
:0C05CE00251EF8E6FD1207E9051E80E07E
:0105DA0022FE
:10078F007FC1120816900837E4936F60221207E1B9
:10079F00900837E493FD7FC01207E990082FE49388
:0F07AF00FF7DA51207E97B007A0079291206ED7C
:0107BE002218
:06075C008B1A8A1B891CA8
:10076200E4F51DC3E51D940774809480501EE51DB9
:1007720090083093FF120816AB1AAA1BA91C851DFC
:0C07820082758300EF120076051D80D701
:01078E002248
:0807E10090082EE493FFE4FDF3
:1007E9008D39C297C295D2971204E5AF391204E543
:0307F900C2972282
:10081600C296C297C295D2971204E5120478C2977F
:0108260022AF
:0606ED008B398A3A893BBB
:1006F300E4F53CC297C295D2977FBE1204E5C3E5E9
:100703003C9408748094805017AB39AA3AA93B856E
:100713003C82758300120037FF1204E5053C80DE3E
:02072300C2977B
:0107250022B1
:0606B2008B3F8A408941E4
:1006B800E4F542C297C295D2977FBF1204E5C3E51D
:1006C800429408748094805017120478AB3FAA4073
:1006D800A941854282758300EF120076054280DECB
:0406E800C297C2965D
:0106EC0022EB
:1005DB00C295C297D297E4FDEDC3940874809480C2
:1005EB00500FEF139296EFC313FFD295C2950D8068
:1005FB00E7E4FDEDC39408748094805018A296E450
:10060B0033FFC43333335480FCEEC3134CFED2950B
:0B061B00C2950D80DEC297C296AF06AC
:0106260022B1
:03000000020301F7
:0C030100787FE4F6D8FD758142020348C5
:10001E00BB010689828A83E0225002E722BBFE02E0
:09002E00E32289828A83E4932213
:10003700BB010CE58229F582E5833AF583E022507E
:1000470006E92582F8E622BBFE06E92582F8E222C8
:0D005700E58229F582E5833AF583E49322E2
:10006400BB010689828A83F0225002F722BBFE017B
:02007400F32275
:10007600F8BB010DE58229F582E5833AF583E8F0C0
:10008600225006E92582C8F622BBFE05E92582C86C
:02009600F22254
:10009800BC000BBE0029EF8DF084FFADF022E4CC4C
:1000A800F875F008EF2FFFEE33FEEC33FCEE9DEC15
:1000B800984005FCEE9DFE0FD5F0E9E4CEFD22ED5B
:1000C800F8F5F0EE8420D21CFEADF075F008EF2FA5
:1000D800FFED33FD4007985006D5F0F222C398FD96
:0500E8000FD5F0EA2233
:10030D00020275E493A3F8E493A34003F68001F28F
:10031D0008DFF48029E493A3F85407240CC8C333F1
:10032D00C4540F4420C8834004F456800146F6DFC0
:10033D00E4800B010204081020408090066EE47EDC
:10034D00019360BCA3FF543F30E509541FFEE493B5
:10035D00A360010ECF54C025E060A840B8E493A37C
:10036D00FAE493A3F8E493A3C8C582C8CAC583CAA7
:10037D00F0A3C8C582C8CAC583CADFE9DEE780BE5F
:0106B1000048
:00000001FF
