:10062800011C00011E00011D00011A00011B04022B
:03063800180001A6
:1005C00012073A1200031206591201B6E51A60F931
:1005D0007F831207048F117F851207048F12752203
:1005E000007523007524267B007A0079101202FE24
:0505F000E4F51A80D4BF
:1002FE008B1F8A208921900002120037C4540FAB45
:10030E0022AA23A924120064AB1FAA20A9219000BF
:10031E0002120037540FFFAB22AA23A9249000012A
:10032E0012003754104F900001120076AB1FAA2016
:10033E00A921900001120037C4540FAB22AA23A9A1
:10034E0024900002120076AB1FAA20A92190000172
:10035E00120037540FAB22AA23A9249000030200E7
:01036E007618
:1004CA008B1F8A208921900001120037540FFF12D6
:1004DA00001EC454F04FAB22AA23A9249000021292
:1004EA000076AB1FAA20A921900002120037C4543B
:1004FA00F0FF900003120037540F4FAB22AA23A932
:07050A0024900001020076BD
:1000030053890F438910758B18758DFCC28FD2AB42
:05001300D2AFD28E22E5
:03001B000200EDF3
:1000ED00C0E0C0F0C083C082C0D075D000C000C0D9
:0D00FD0001C002C003C004C005C006C0075A
:10010A00758B18758DFCE51954077003751D01E58B
:10011A001E7011AE18AF19FC7D14120098ED4C70C8
:10012A0003751A010519E519AE1870020518146449
:10013A00F47003EE64017054E51E14601514601B1C
:10014A001460281460322404703C751B0463271061
:10015A008034E51B602D751B00802B53270FE51B90
:10016A0064016005751B01801D8018E51B6402602F
:10017A0005751B028010800BE51B64036005751B67
:10018A00038003751B04751800751901AF1B12054E
:01019A001153
:10019B00D007D006D005D004D003D002D001D000B8
:0B01AB00D0D0D082D083D0F0D0E03262
:1001B600E51D640160030202711206EA8F1CE51C4C
:1001C60024FE605404600302026EE51E640470247B
:1001D600F51EF522752300752408FB7A0079261290
:1001E60004CAE4FD7F8E1206D77B007A00790812D6
:1001F60005878074E51E6401701A051EE5266402F3
:100206007066E527440FD39403748094804059E4C4
:10021600F5278054051E8050E51E24FE60171460E5
:100226002F146039240370400526E52675F00384F3
:1002360085F026803353270F0527E52664027005CF
:100246005327038023E52775F00A8485F027801855
:100256000528E52875F0068485F028800B0529E534
:0C0266002975F00A8485F029E4F51D22BA
:05073A00C2A7C2A622C7
:05073F00D2A6C2A622B3
:1006AD007E07EE3395E0C3648094804014A806EF76
:1006BD00088002C313D8FC1392A5C2A7D2A71E802F
:0106CD00E14B
:0106CE002209
:0B0726001206ADAF051206AD02073F42
:080731007F097EEFDEFEDFFC14
:01073900229D
:100689007E483D6D4B67774C7F6F5F7336793717BF
:10069900FEC8BDEDCBE7F7CCFFEFDFF3B6F9B797AF
:0406A900BFDFEFF7C9
:09063B000426010204050125005A
:10051100E5256F7DFF6019E4FF1207267426252566
:10052100F8E690068993FFE5259006A993FD8012D0
:10053100E4FF12072674262525F8E690068993FF25
:0A0541007DFF120726052553250350
:01054B00228D
:1006EA00E4FF2090092090110F20900D80FB20B686
:0906FA000820B6057F0230B6FDB0
:0107030022D3
:1003DC00EF139296EFC313FFD295C295139296EF3B
:1003EC00C313FFD295C295139296EFC313FFD29508
:1003FC00C295139296EFC313FFD295C295139296A2
:10040C00EFC313FFD295C295139296EFC313FFD28D
:10041C0095C295139296EFC313D295C295139296EB
:05042C00D295C29522EB
:10036F00E4A29633FFD295C295A296E43325E042DC
:10037F0007D295C295A296E43325E025E04207D235
:10038F0095C295A296E43333333354F84207D2958E
:10039F00C295A296E433C454F04207D295C295A2F7
:1003AF0096E433C43354E04207D295C295A296E443
:1003BF0033C4333354C04207D295C295A296E43367
:0C03CF00C433333354804207D295C295EA
:0103DB0022FF
:1007150080828486888A8C8E9081838587898B8D5B
:010725009D36
:1006440008101258081409072080080800580814D4
:0406540009072080F2
:10043100E4F5327FC1120704900725E4936F603C15
:100441001206CF900725E493FD7FC01206D79007CF
:100451001DE493FF7DA51206D7E4F532C3E532947E
:1004610008748094805015E53290071593FF74103D
:0C0471002532F8E6FD1206D7053280E0C7
:01047D00225C
:100659007FC1120704900725E4936F60221206CF29
:10066900900725E493FD7FC01206D790071DE493F8
:0F067900FF7DA51206D77B007A00791012058746
:01068800224F
:0605F5008B2A8A2B892CE1
:1005FB00E4F52DC3E52D940774809480501EE52DF2
:10060B0090071E93FF120704AB2AAA2BA92C852D4A
:0C061B0082758300EF120076052D80D759
:0106270022B0
:0806CF0090071CE493FFE4FD19
:1006D7008D1FC297C295D2971203DCAF1F1203DC9E
:0306E700C2972295
:10070400C296C297C295D2971203DC12036FC297A6
:0107140022C2
:060587008B1F8A20892170
:10058D00E4F522C297C295D2977FBE1203DCC3E574
:10059D00229408748094805017AB1FAA20A921853E
:1005AD002282758300120037FF1203DC052280DEE4
:0205BD00C297E3
:0105BF002219
:06054C008B2E8A2F89307E
:10055200E4F531C297C295D2977FBF1203DCC3E59F
:1005620031940874809480501712036FAB2EAA2F17
:10057200A930853182758300EF120076053180DE65
:04058200C297C296C4
:010586002252
:10047E00C295C297D297E4FDEDC394087480948020
:10048E00500FEF139296EFC313FFD295C2950D80C6
:10049E00E7E4FDEDC39408748094805018A296E4AE
:1004AE0033FFC43333335480FCEEC3134CFED2956A
:0B04BE00C2950D80DEC297C296AF060B
:0104C9002210
:0300000002027287
:0C027200787FE4F6D8FD7581320202B9F5
:10001E00BB010689828A83E0225002E722BBFE02E0
:09002E00E32289828A83E4932213
:10003700BB010CE58229F582E5833AF583E022507E
:1000470006E92582F8E622BBFE06E92582F8E222C8
:0D005700E58229F582E5833AF583E49322E2
:10006400BB010689828A83F0225002F722BBFE017B
:02007400F32275
:10007600F8BB010DE58229F582E5833AF583E8F0C0
:10008600225006E92582C8F622BBFE05E92582C86C
:02009600F22254
:10009800BC000BBE0029EF8DF084FFADF022E4CC4C
:1000A800F875F008EF2FFFEE33FEEC33FCEE9DEC15
:1000B800984005FCEE9DFE0FD5F0E9E4CEFD22ED5B
:1000C800F8F5F0EE8420D21CFEADF075F008EF2FA5
:1000D800FFED33FD4007985006D5F0F222C398FD96
:0500E8000FD5F0EA2233
:10027E000205C0E493A3F8E493A34003F68001F2D1
:10028E0008DFF48029E493A3F85407240CC8C33381
:10029E00C4540F4420C8834004F456800146F6DF50
:1002AE00E4800B0102040810204080900628E47EB2
:1002BE00019360BCA3FF543F30E509541FFEE49345
:1002CE00A360010ECF54C025E060A840B8E493A30C
:1002DE00FAE493A3F8E493A3C8C582C8CAC583CA37
:1002EE00F0A3C8C582C8CAC583CADFE9DEE780BEEF
:0106580000A1
:00000001FF
