:10066A00013500013700013600013300013404026C
:03067A003100014B
:10030100E5A0640724FF9203E5A0640624FF92049C
:10031100E5A0640524FF9205120853120876E590C2
:10032100640324FF9203E590640124FF9204E590A5
:10033100640424FF9205120853120876E5A06402B2
:1003410024FF9203E5A0640124FF9204E5A024FFA9
:1003510092051208531208761200031207CC1201FB
:10036100B9E53360F97F831208318F2A7F8512083E
:10037100318F2B753C00753D00753E0A7B007A007C
:0A0381007929120403E4F53380D457
:100403008B398A3A893B900002120037C4540FABF0
:100413003CAA3DA93E120064AB39AA3AA93B90001D
:1004230002120037540FFFAB3CAA3DA93E900001D6
:1004330012003754104F900001120076AB39AA3ADC
:10044300A93B900001120037C4540FAB3CAA3DA94D
:100453003E900002120076AB39AA3AA93B90000104
:10046300120037540FAB3CAA3DA93E900003020093
:010473007612
:100623008B398A3A893B900001120037540FFF122D
:10063300001EC454F04FAB3CAA3DA93E90000212E9
:100643000076AB39AA3AA93B900002120037C45492
:10065300F0FF900003120037540F4FAB3CAA3DA9A3
:070663003E90000102007649
:1000030053890F438910758B18758DFCC28FD2AB42
:05001300D2AFD28E22E5
:03001B000200EDF3
:1000ED00C0E0C0F0C083C082C0D075D000C000C0D9
:0D00FD0001C002C003C004C005C006C0075A
:10010A00758B18758DFCE53254077003753601E559
:10011A00377011AE31AF32FC7D14120098ED4C707D
:10012A00037533010532E532AE31700205311464CC
:10013A00F47003EE64017054E53714601514601B03
:10014A001460281460322404703C753404630B1064
:10015A008034E534602D753400802B530B0FE53461
:10016A0064016005753401801D8018E534640260FD
:10017A00057534028010800BE5346403600575341C
:10018A00038003753404753100753201AF341205EA
:04019A003612038B8B
:10019E00D007D006D005D004D003D002D001D000B5
:0B01AE00D0D0D082D083D0F0D0E0325F
:1001B900E536640160030202741208178F35E535CC
:1001C90024FE6054046003020271E537640470245C
:1001D900F537F53C753D00753E21FB7A00790A1229
:1001E9000623E4FD7F8E1208047B007A0079211230
:1001F900072A8074E5376401701A0537E50A640235
:100209007066E50B440FD39403748094804059E4DD
:10021900F50B805405378050E53724FE60171460CC
:100229002F14603924037040050AE50A75F0038428
:1002390085F00A8033530B0F050BE50A640270053C
:10024900530B038023E50B75F00A8485F00B8018A6
:10025900050CE50C75F0068485F00C800B050DE5A1
:0C0269000D75F00A8485F00DE4F53622D6
:0D085300A20392A7A20492A6A20592A522DC
:05087600C2A7C2A6228A
:05087B00D2A6C2A62276
:1006AE00EF3392A5C2A7D2A7EFA2E692A5C2A7D218
:1006BE00A7A2E592A5C2A7D2A7A2E492A5C2A7D2ED
:1006CE00A7A2E392A5C2A7D2A7A2E292A5C2A7D2E1
:1006DE00A7A2E192A5C2A7D2A71392A5C2A7D2A79D
:0106EE0022E9
:0D086000AE051206AEAF061206AE02087B12
:08086D007F097EEFDEFEDFFCD7
:010875002260
:100763007E483D6D4B67774C7F6F5F7336793717E4
:10077300FEC8BDEDCBE7F7CCFFEFDFF3B6F9B797D4
:10078300BFDFEFF7FBFDF7C1EEEBD9BBBFE1FFFB2B
:06079300FD9FB6CFBEBCC5
:10067D00040A01020405060E000000000000061425
:0C068D000000000000000108000109004E
:020536008F38FC
:10053800E5A0640724FF9203E5A0640624FF920463
:10054800E5A0640524FF9205120853E508653860A4
:100558001B7DFFE4FF120860740A2508F8E690077F
:100568006393FFE50890078393FD800D740A2508BF
:10057800F8E690076393FF7DFF12086005085308AB
:01058800036F
:01058900224F
:10038B00E590640324FF9203E590640124FF92043B
:10039B00E590640424FF92051208537DFFE4FF12DD
:1003AB000860740E2509F8E690076393FFE5099042
:1003BB00078393FD120860E5A0640224FF9203E516
:1003CB00A0640124FF9204E5A024FF9205120853B8
:1003DB007DFFE4FF12086074142509F8E6900763AB
:1003EB0093FFE50990078393FD1208600509E50962
:0703FB0075F0068485F0098E
:0104020022D7
:10081700E4FF2090092090110F20900D80FB20B657
:090827000820B6057F0230B6FD81
:0108300022A5
:1004E100EF139296EFC313FFD295C295139296EF35
:1004F100C313FFD295C295139296EFC313FFD29502
:10050100C295139296EFC313FFD295C2951392969B
:10051100EFC313FFD295C295139296EFC313FFD287
:1005210095C295139296EFC313D295C295139296E5
:05053100D295C29522E5
:10047400E4A29633FFD295C295A296E43325E042D6
:1004840007D295C295A296E43325E025E04207D22F
:1004940095C295A296E43333333354F84207D29588
:1004A400C295A296E433C454F04207D295C295A2F1
:1004B40096E433C43354E04207D295C295A296E43D
:1004C40033C4333354C04207D295C295A296E43361
:0C04D400C433333354804207D295C295E4
:0104E00022F9
:1008420080828486888A8C8E9081838587898B8D2D
:010852009D08
:10069900082912580814090720800821005808144D
:0406A900090720809D
:10058A00E4F51E7FC1120831900852E4936F603C73
:10059A001207FC900852E493FD7FC01208049008E9
:1005AA004AE493FF7DA5120804E4F51EC3E51E94F0
:1005BA0008748094805015E51E90084293FF7429B0
:0C05CA00251EF8E6FD120804051E80E066
:0105D6002202
:1007CC007FC1120831900852E4936F60221207FC2B
:1007DC00900852E493FD7FC012080490084AE493F9
:0F07EC00FF7DA51208047B007A00792912072AE5
:0107FB0022DB
:060799008B1A8A1B891C6B
:10079F00E4F51DC3E51D940774809480501EE51D7C
:1007AF0090084B93FF120831AB1AAA1BA91C851D89
:0C07BF0082758300EF120076051D80D7C4
:0107CB00220B
:0807FC00900849E493FFE4FDBD
:100804008D39C297C295D2971204E1AF391204E12F
:03081400C2972266
:10083100C296C297C295D2971204E1120474C2976C
:010841002294
:06072A008B398A3A893B7D
:10073000E4F53CC297C295D2977FBE1204E1C3E5AF
:100740003C9408748094805017AB39AA3AA93B8531
:100750003C82758300120037FF1204E1053C80DE05
:02076000C2973E
:010762002274
:0606EF008B3F8A408941A7
:1006F500E4F542C297C295D2977FBF1204E1C3E5E4
:10070500429408748094805017120474AB3FAA4039
:10071500A941854282758300EF120076054280DE8D
:04072500C297C2961F
:0107290022AD
:1005D700C295C297D297E4FDEDC3940874809480C6
:1005E700500FEF139296EFC313FFD295C2950D806C
:1005F700E7E4FDEDC39408748094805018A296E454
:1006070033FFC43333335480FCEEC3134CFED2950F
:0B061700C2950D80DEC297C296AF06B0
:0106220022B5
:0300000002027584
:0C027500787FE4F6D8FD7581420202BCDF
:10001E00BB010689828A83E0225002E722BBFE02E0
:09002E00E32289828A83E4932213
:10003700BB010CE58229F582E5833AF583E022507E
:1000470006E92582F8E622BBFE06E92582F8E222C8
:0D005700E58229F582E5833AF583E49322E2
:10006400BB010689828A83F0225002F722BBFE017B
:02007400F32275
:10007600F8BB010DE58229F582E5833AF583E8F0C0
:10008600225006E92582C8F622BBFE05E92582C86C
:02009600F22254
:10009800BC000BBE0029EF8DF084FFADF022E4CC4C
:1000A800F875F008EF2FFFEE33FEEC33FCEE9DEC15
:1000B800984005FCEE9DFE0FD5F0E9E4CEFD22ED5B
:1000C800F8F5F0EE8420D21CFEADF075F008EF2FA5
:1000D800FFED33FD4007985006D5F0F222C398FD96
:0500E8000FD5F0EA2233
:10028100020301E493A3F8E493A34003F68001F28F
:1002910008DFF48029E493A3F85407240CC8C3337E
:1002A100C4540F4420C8834004F456800146F6DF4D
:1002B100E4800B010204081020408090066AE47E6D
:1002C100019360BCA3FF543F30E509541FFEE49342
:1002D100A360010ECF54C025E060A840B8E493A309
:1002E100FAE493A3F8E493A3C8C582C8CAC583CA34
:1002F100F0A3C8C582C8CAC583CADFE9DEE780BEEC
:0106AD00004C
:00000001FF
